:020000041000EA
:1000000000B5324B212058609868022188439860DF
:10001000D860186158612E4B002199600221596106
:100020000121F02299502B49196001219960352056
:1000300000F044F80222904214D00621196600F024
:1000400034F8196E01211966002018661A6600F04E
:100050002CF8196E196E196E052000F02FF8012189
:100060000842F9D1002199601B49196000215960AB
:100070001A491B48016001219960EB211966A021F2
:10008000196600F012F800219960164914480160C1
:100090000121996001BC002800D000471248134993
:1000A000086003C880F30888084703B5996A0420EC
:1000B0000142FBD001200142F8D103BD02B5186610
:1000C0001866FFF7F2FF186E186E02BD00000240BE
:1000D000000000180000070000035F00212200005C
:1000E000F4000018222000A00001001008ED00E03C
:1000F00000000000000000000000000074B24E7A12
:1001000000200420F7010010CB010010CD010010E9
:10011000C9010010C9010010C9010010C901001077
:10012000C9010010C9010010C9010010CF01001061
:10013000C9010010C9010010D1010010D301001045
:10014000C1010010C1010010C1010010C101001067
:10015000C1010010C1010010C1010010C101001057
:10016000C1010010C1010010C1010010C101001047
:10017000C1010010C1010010C1010010C101001037
:10018000C1010010C1010010C1010010C101001027
:10019000C1010010C1010010C1010010C101001017
:1001A000C1010010C1010010C1010010C101001007
:1001B000C1010010C1010010C1010010C1010010F7
:1001C000EFF30580103800BE00BE00BE00BE00BECA
:1001D00000BE00BEF2EB887120DC011044DC01108F
:1001E0003802001090A31AE700201E49086006C8D4
:1001F00081F3088810471C480068002801D00020BF
:10020000F3E70DA40ECC002902D000F012F8F9E7B4
:100210001649174A002000E001C19142FCD115495E
:100220008847154988471549884700BEFDE701C939
:1002300001C29A42FBD3704744DC0110C000002089
:10024000241D0020A8F80110000004200000042054
:10025000A8F8011000100420001004200000000085
:100260007047000008ED00E0000000D0241D0020D1
:10027000FC2F00207DB90010FD1600103DB90010C4
:100280001E4A10B51378002B0CD01D4B19688B003B
:100290005B181C499B0059180868012101401A4845
:1002A0001B18196000231370184A052108201360D9
:1002B00007F08CFC082007F0B3FCD0248023240630
:1002C0005B00A3610022A3620021082007F096FCD6
:1002D000072007F0A5FC80230022A362002107204D
:1002E00007F08CFC092007F09BFC80239B00002278
:1002F00000210920A36207F081FC10BDF52F00202A
:10030000A02800200000054000100540982800208B
:10031000F0B5C64600B53F4BD8B01B78002B03D1D3
:1003200058B080BCB846F0BD08F0DEFB00294DD0C7
:10033000FA220023920008F01BFF374A1368C31A01
:10034000952BEDD91060D022802112065368506899
:100350001940C00552680B06C00F8046DB0F92059E
:1003600039D400294BD000212C4F2D4E2D4A107826
:10037000002836D12C482D4D84462D48016001209F
:10038000644610702B4A2360126808A806922A4A15
:10039000126801910592A0214246049600920395AD
:1003A000264A029749000BF05FFA00200CF0FAFE93
:1003B0000028B5D008A80FF023F808A902000020F3
:1003C0000CF032FF00200CF03BFFA9E7FA21890076
:1003D00008F090FEB1E7002915D1114F0F4E013101
:1003E000C4E7114884460068984211D00F480700BE
:1003F00005000F4804688C42C0D02E00BEE7084AB2
:1004000017001600B2E7054A012117001600ADE7F4
:10041000064DEEE7F52F00209C280020DC4201105D
:10042000D8420110F92F0020442B0020E442011093
:10043000482B0020E00E002098280020F0420110F8
:10044000F0B5DE4657464E464546E0B5CC4CCD4964
:10045000A544CD4C20000EF0E9FC00232354237862
:10046000002B69D0C94B22689A4200D16DE1142259
:100470002000C7490EF0FCFC002865D02000C549CB
:100480000EF07AFF002800D1C8E2C34B22689A42DE
:1004900000D16CE2C14B22689A4200D1BEE1C04A51
:1004A0002368934200D1AFE3BE4A934200D1F7E202
:1004B000BD4B22689A4200D159E3BC4B22689A4254
:1004C00000D1CAE3BA4B22689A4200D10BE3B94B80
:1004D00022689A4200D1C6E3B74B22689A4200D103
:1004E000CFE3B64B22689A4201D100F0BBFDB44B7A
:1004F00022689A4201D100F012FEB24B22689A4261
:1005000001D100F046FEB04B22689A4201D100F0C2
:100510001AFFA44B22689A4201D100F04BFF002041
:100520000CF040FE002807D016220020A7490CF04E
:100530007BFE00200CF084FEA54B9D44F0BCBB4626
:10054000B246A946A046F0BD2022237D934395D113
:100550000EA9B8228C469F4BD20062441360B82289
:100560002000D20062449C4914300EF08FFBB82367
:100570000EAADB009C58994B9C4200D9A6E2FA23B4
:100580009B009C4200D29FE2FFF77AFE05210720E4
:1005900007F01CFBD025072007F042FB80232D0627
:1005A0000022AB620021072007F028FB052109206B
:1005B00007F00CFB092007F033FB80239B0000228F
:1005C000AB620021092007F019FB0820042107F085
:1005D000FDFA0423824A05201700136008F084FB0B
:1005E000002800D16BE209F063F80890099120001F
:1005F00009F05EF802000B00089809990E920F931B
:1006000008F0C5FF05000E000022764B0A950B96F8
:1006100009F03CF8002800D187E20022724B280044
:10062000310008F0ABFF714B002208F0CEFF09F05B
:100630007FF80300FF2800D9FF2318001D0009F0F0
:1006400037F802000B000E980F990C920D9308F0EA
:10065000BCFF02000B000898099908F098FF0A9067
:100660000B91280009F0A4FCF421890509F054FC41
:100670008321C90509F067FC09F0C2FC06000A984D
:100680000B995B4B002208F079FF09F051F88023A9
:100690005B02984200D843E2180000253968431EE7
:1006A0008A0052185349920051180D608D60CD6038
:1006B0000B614E60504E0D6036685B0873401B0442
:1006C0004E4E1B0C33600B68012199430B004C49C3
:1006D000521813604B4B1C6008F0EAFF0C9A0D9BFC
:1006E00008F073FF02000B000898099908F04FFF0B
:1006F00000223F4B08F042FF09F01AF8424A01215C
:1007000010600300F820414AC0001170404ABF3118
:10071000156000940EAC3F4A00190BF0A5F80020BC
:100720000CF040FD002800D106E7F823DB00181983
:100730000EF066FEF823DB000200191900200CF011
:1007400073FD00200CF07CFDF6E62379002B00D031
:100750008DE600200CF026FD002800D0EBE104F02F
:10076000DBF900200CF01EFD002800D1E4E62A4948
:10077000082200200CF058FD00200CF061FDDBE6A3
:1007800004F6FFFFB0430110602F0020494E49548A
:10079000FC4301106C4401104348454350494E5FEF
:1007A00047505400524541444558544356455253CE
:1007B00046575F564944454E434D445F434D44318F
:1007C00053445F54434C4B5F53544F50F44A011011
:1007D000FC090000801A06007453011000093D0056
:1007E000A02800200000F040E0FFEF400000F03EB5
:1007F0000000E03F000005405C0005405C10054043
:1008000000100540E00E002098280020F52F002061
:100810009C28002014440110F0430110D94B626859
:100820009A4200D03BE62022237A934300D036E65A
:100830000021103AFEA809F063FCB8230EA8DB00E3
:1008400010220021181809F05BFCB82320000EAA22
:10085000DB009B18CC490830FEAA0EF017FA0228DC
:1008600000D00EE1C94B0EAA19009946B823DB004F
:1008700098180EF081FD0126002800D028E1C44B15
:100880000EAA19009846B823DB0098180EF074FDE4
:10089000C04C05002100FEA80EF06EFD0700002DE3
:1008A00000D0CCE0002F00D1D2E1BB49FEA80EF071
:1008B00063FD002800D1CBE1B84CFEA821000EF06A
:1008C0005BFD002801D100F043FEB549FEA80EF003
:1008D00053FD002801D100F0DEFDB249FEA80EF064
:1008E0004BFD002801D100F07BFEAF49FEA80EF0C1
:1008F00043FD0924AB4F002800D0C2E00123A340F0
:100900001D000521200007F061F9200007F088F99B
:1009100000220021200007F071F9D0231B06002ED1
:1009200000D0DAE31E009D6100215D62642007F0C3
:10093000E9FE2900736819401D4201D100F0AFFDA6
:1009400001214046994B0290F820039180210194A7
:10095000C0000EAC964A0097490000190AF084FFC7
:1009600000200CF01FFC002800D1E5E5DDE6914BEE
:1009700062689A4200D08DE58F4B22899A4200D05E
:1009800088E5A37A002B00D084E5D02480252406B6
:10099000072007F045F9002201210720A56207F092
:1009A0002DF9082007F03CF980235B00002201218B
:1009B000A362082007F022F9092007F031F980230B
:1009C0009B00A36200220121092007F017F90A20E9
:1009D00007F0F4FE63681D4200D135E1774BD02269
:1009E00012065268D20500D42CE17449D0221206B6
:1009F0005268920500D429E170480190F8200EACAD
:100A0000C00000916E4A602100190AF02DFF0020FD
:100A10000CF0C8FB002800D18EE586E6FFF730FC1D
:100A200000200CF0BFFB002800D185E52422654999
:100A300000200CF0F9FB00200CF002FC7CE5B82350
:100A40000EAADB00604998180EF096FC002800D131
:100A500028E7002F00D102E34F49FEA80EF08CFCDE
:100A6000002800D1FBE24D4CFEA821000EF084FCD2
:100A700027000724002801D000F098FD002E00D0A8
:100A80003CE700200CF08EFB002800D154E55922F1
:100A90004E4900200CF0C8FB00200CF0D1FB4BE5C8
:100AA0004B4B62689A4200D002E54A4BA2689A42D8
:100AB00000D0FDE44849494804F0F6F83CE500223E
:100AC000474B0892099392E51C005DE51C0056E532
:100AD000B8230EAADB00981842490EF04DFC4342A1
:100AE00043411E00CBE6404B62689A4200D0EEE4E0
:100AF0003E4B22899A4200D0E9E4A37A002B00D031
:100B0000E5E400200CF04EFB002800D114E56E2235
:100B1000374900200CF088FB00200CF091FB0BE51E
:100B2000022800D3B9E50220B7E50022314B102698
:100B30000C920D93A3E53049F820009180210EAC72
:100B4000C0002E4A49002E4B00190AF08DFEF823F2
:100B5000DB0018190EF054FCF823DB000200191911
:100B600000200CF061FB00200CF06AFBF7E5254B40
:100B7000A2889A4200D0A0E4A379002B00D09CE484
:100B800098E7C04654455354D8440110DC42011044
:100B9000D842011090430110F04401109C43011011
:100BA000F444011094430110F8440110A8430110CB
:100BB000004501104B5F50494E5300008C4301101B
:100BC000B444011080440110EC4401105C45011054
:100BD0005F455854435344003848011054480110AD
:100BE00065CD9D41E4440110455253494F4E0000EC
:100BF0007C4801100000F03FD0430110C4430110B5
:100C0000BC430110534400006023002100930120E5
:100C100016AB7EAA03F072F8002800D16DE2D24B29
:100C20007E9A9A425BD000200CF0BCFA002800D1DA
:100C300082E44622CD4900200CF0F6FA00200CF0A8
:100C4000FFFA79E4CA49D1E6C94BC8E6C848D4E6F8
:100C5000802527006D00082453E6C64B62689A423F
:100C600000D02FE44DE7C44B62689A4200D033E4D1
:100C7000237A002B00D02FE4C049C14804F014F8B7
:100C80005AE4C04B62689A4200D02AE42022237AB8
:100C9000934300D025E40EA9B8228C46D2006244CA
:100CA00006331360B8222000D2006244B6490830EF
:100CB0000DF0ECFF0EAAB8239446F820DB00634445
:100CC000C00060211B68B14A604464460AF0CCFD54
:100CD000F823DB001919AE4803F0E6FF2CE4AD4B16
:100CE0007F9A9A429FD1D222819B52005C3B9342D1
:100CF00000D9A3E1939B1A009846C023803A5B0079
:100D00009A4200D99AE1929B002B00D196E19099EA
:100D1000919A9A4612911392802B01D980239A4678
:100D20008A988B99434602900391889889990593F4
:100D3000009001915346A021974A049349002EA8A0
:100D40000AF092FD00200CF02DFA002801D1FFF7E7
:100D5000F3FB2EA80EF054FB2EA9020000200CF08D
:100D600063FA00200CF06CFA434610930023002431
:100D7000119300230A930B94013B99469B46874BA2
:100D80000027159347E0FEA800190378002B00D038
:100D90009BE04378002B00D097E08378002B00D0B5
:100DA00093E0C378002B00D08FE00379002B00D0B4
:100DB0008BE04379002B00D087E08379002B00D0B3
:100DC00083E0C379002B00D07FE0037A002B00D0B2
:100DD0007BE0437A002B78D1837A002B75D1C37ADC
:100DE000002B72D1037B002B6FD1437B002B6CD186
:100DF000837B002B69D1C37B002B66D10A9B0B9CA4
:100E00001099119A5B185441781C07000A930B94AF
:100E1000824500D18BE30A990B9A480A8446D30590
:100E20009C4463460893530A0993089B099C1299B2
:100E3000139A5B1854411D0026004B4501D15C45B7
:100E40000CD0602300210093280016ABFEAA02F00C
:100E500055FF002800D18CE3A946B3460A9B8022A7
:100E6000DC054346E40D1B19920093428BD9F8220E
:100E700060230EA9D20000935218681C002116AB03
:100E800002F03CFF002800D18EE380239B001D1B55
:100E9000B823FEA9DB000EA82A000919181809F0CA
:100EA00035F9B8230EAADB009B184246E8183C4BE4
:100EB0000EA9D218F823DB001219591809F026F9E7
:100EC000B8230EAADB0098185FE721222023825C5A
:100ED000C35C12021A432223C35C28211B04134360
:100EE0002322825C12061A430C9225222423825C60
:100EF000C35C12021A432623C35C1B04134327223C
:100F0000825C12061A43435C0131415C0D92090276
:100F100019432A23C35C1B0419432B23C35C1B0600
:100F20000B432C210E93435C0131415C09021943B0
:100F30002E23C35C1B0419432F23C35C1B060B43E6
:100F40000F930C990D9A0E9B0F9CA24200D955E766
:100F500002D1994200D951E7124A0EA95218002332
:100F6000944638302AE0C04645464920FC450110E9
:100F7000D8420110494F4E0054494659F8480110D3
:100F80001449011054455354745301103049011051
:100F90005849011050415254884601109847011099
:100FA00000FEFFFFBF070000203A01335E2A00D990
:100FB0005F2462460230D454242B06D00278417854
:100FC000140009020C43221EEED19C2200201201C3
:100FD00099180EABC918E54B0125C85400260E9B85
:100FE0000F9C18002100401971410C9D0D9E401B63
:100FF000B14104930594F82306900791A0210EAA0D
:10100000DB009B180093029503963B00159A49005C
:101010002EA80AF029FC00200CF0C4F8002801D109
:10102000FFF78AFA2EA80EF0EBF92EA90200002095
:101030000CF0FAF800200CF003F9DFE600200CF0C9
:10104000B1F8002801D1FFF777FA4122C849002002
:101050000CF0EAF800200CF0F3F8FFF76DFA270027
:1010600008240BE5C34B62689A4201D0FFF73FFAB0
:10107000237A542B01D0FFF73AFA2022637A934364
:1010800001D0FFF734FA0EA9B8228C461033FE9334
:10109000D200B94B62441360B8232000DB006344E4
:1010A000FEAAB64909300DF0F1FD0EA8B82184461C
:1010B000F820C90061440968C000FE9B0091B04A55
:1010C0008021604464460AF0CFFBF823DB00191945
:1010D000AC4803F0E9FDFFF72FFA1E005D61002127
:1010E0005D62642007F00EFB2900736819401D4201
:1010F00000D0D8E14846A44B25E4F8200EACC0004F
:10110000C021A24A16AB00190AF0AEFB00200CF079
:1011100049F8002801D1FFF70FFAFFF706FB9C4BB7
:10112000A2889A4201D0FFF7E8F9A379542B01D0A5
:10113000FFF7E3F92022E379934301D0FFF7DDF9CC
:101140000EA9B8228C461833FE93D2008A4B624413
:101150001360B823DB006344FEAA8849E01D0DF04C
:1011600095FD0EA8B8218446F820C900614409689D
:10117000C000FE9B0091874A8021604464460AF0CB
:1011800073FBF823DB001919834803F08DFDFFF78B
:10119000D3F9824B62689A4201D0FFF7B4F920225A
:1011A000237A934301D0FFF7AEF97D4BFA25FE93E6
:1011B000B8230EAADB00AD009D50B8232000DB0051
:1011C0009B186E490830FEAA0DF060FDFE9BAB42F5
:1011D00000D39DE1FE95B8230EAA9446DB0063443C
:1011E0001B68632B00D999E1B8226423D2006244C2
:1011F00013600720D02406F013FD8023240600226C
:101200000021A362072006F0F9FC092006F008FD82
:1012100080239B00A36200220021092006F0EEFC3F
:10122000082006F0FDFC80235B00A36105206362BB
:1012300007F05AFD002800D15A48FE9C01272018CB
:101240006100884202D307F055FF0700B8230EAAB9
:10125000DB009B5820001A001D000021002308F02D
:101260003BFEFA220023920007F082FF001849415A
:1012700002000B008046894608920993002903D199
:10128000022801D202339846F8200EABC000C018E5
:10129000A0212300444A0197009506000AF0E4FAD1
:1012A00000200BF07FFF002800D056E1D024002260
:1012B00000230120002124060125154238D0FF35E6
:1012C00065613D00033DFDD212184B419045F3D1BD
:1012D0009945F1D1D02380221B0652009A6100214A
:1012E0009A620820002206F089FC41460291099981
:1012F0000EA80391B821C9000958FE9B0091300047
:10130000A0212A4A0AF0B0FA00200BF04BFF002877
:1013100001D1FFF711F930000EF072F83100020030
:1013200000200BF081FF00200BF08AFFFFF704F98B
:1013300080256D00A5613D00033DFDD212184B4193
:101340009045B9D1C4E72379002B01D0FFF7E1F82C
:10135000FEF796FF03F054FC00200BF023FF00285B
:1013600001D1FFF7E9F81249FFF702FA00FEFFFF8B
:10137000444601105F5445530080FF4074490110FA
:101380007C490110AC490110A8430110BC45011073
:1013900045530000C4490110F44901105445535409
:1013A000801A060040597307104A0110704A011054
:1013B000D84A01102379202B01D0FFF7B0F8002381
:1013C00089497E93FE938948FEAB7EAA0DF05EFCB0
:1013D000022801D0FFF7B0F8FE9B002B01D1FFF7E8
:1013E000ABF8F8230EAADB0000249E180AE00020C8
:1013F0000BF0D8FE00285BD1FE9B01349C4201D348
:10140000FFF79AF860230093B8237E980EAADB00BA
:101410009B1800213200201802F070FC0028E6D151
:10142000802200213000920008F06AFE00200BF0BC
:10143000B9FE0028E0D0002500200BF00DFF82B29D
:10144000002A1ED0802300049B00000C5B1B9842E6
:101450001DDC53199FB2711900200BF0E5FE00202E
:101460000BF0EEFE3220002107F04CF980229200B2
:101470009742C1D200200BF0EFFE82B23D00002A5D
:10148000E0D10120002140420BF060F9D4E7802731
:101490009AB2BF00DFE727000724FFF72FFA404684
:1014A000534BFFF750FA01214846514BFFF74BFAD7
:1014B000002500200BF0D0FE82B2002A1ED080232F
:1014C00000049B00000C5B1B98421DDC53199FB26B
:1014D000711900200BF0A8FE00200BF0B1FE3220A5
:1014E000002107F00FF980229200974284D2002059
:1014F0000BF0B2FE82B23D00002AE0D101200021B3
:1015000040420BF023F9D4E780279AB2BF00DFE70F
:10151000384A934200D85EE6FE925CE6364A934231
:1015200000D866E6B8230EA9DB005A5061E6002019
:101530000BF038FE002801D1FEF7FEFF22222F49D2
:1015400000200BF071FE00200BF07AFEFEF7F4FF96
:10155000270080250724FFF7D4F930000DF050FF55
:101560003100020000200BF05FFE00200BF068FE4F
:101570009CE6234AA02116AB49002EA80AF074F974
:1015800000200BF00FFE002801D1FEF7D5FF2EA89A
:101590000DF036FF2EA9020000200BF045FE0020C2
:1015A0000BF04EFEFEF7C8FF164AE3E71649FEA809
:1015B0000DF0E2FE002801D1FFF760FA1349FEA802
:1015C0000DF0DAFE002807D01149FEA80DF0D4FE78
:1015D000002801D0FFF755FA09240C4FFFF74EFA07
:1015E00009240A4FFFF78AF9EC4A0110652F002001
:1015F000A043011000093D008813000000480110BD
:10160000F446011040470110F444011094430110C6
:10161000F84401100220704730B50C001500C3B02B
:10162000022801D943B030BD00200BF0BBFD0028DB
:10163000F8D080212300094A4900009502A80AF049
:1016400013F902A80DF0DCFE02A9020000200BF045
:10165000EBFD00200BF0F4FDE4E7C046C4430110AD
:1016600070B5050000200BF09DFD041E01D1200087
:1016700070BD28000DF0C4FE2900020000200BF010
:10168000D3FD00200BF0DCFDF1E7C046F0B5C64607
:10169000070000B500200D000BF084FD80460028F7
:1016A00003D1404680BCB846F0BD0024002D10D1C7
:1016B000F7E7A618B6B2391900200BF0B5FD0020E7
:1016C0000BF0BEFD3220002107F01CF83400A542CB
:1016D000E7D900200BF0C0FD82B2002A07D0000439
:1016E000000C2B1B9842E4DD2E009AB2E3E70120A8
:1016F000002140420BF02AF8E9E7C046F0B583B07C
:101700000AF034FA002100200BF0A0FF03F004FAE5
:101710006B46164D164FDC1D03E0FEF7F9FD05F094
:10172000BDF90120002140420BF010F800200BF021
:101730004FFD0028F1D00122210000200BF068FDB0
:101740000028EAD022782B780A2A07D00D2A05D063
:101750007E2BE2D8591C2970FA54DEE70026FE548D
:10176000002BDAD0FEF76CFE2E70D6E7FA2F0020A1
:10177000602F002000487047A863011000487047A0
:101780005C630110F0B5DE4657464E464546E0B56F
:101790008DB000285FD0032821D0042864D8364BB0
:1017A0008000C45820000DF02BFE002861D0334E7D
:1017B0002300B21C24181978013311800232A3428D
:1017C000F9D1C023013040009B0003433000338037
:1017D0000DB0F0BCBB46B246A946A046F0BD1021F4
:1017E00004A80CF071FD019010283AD800283DD0D3
:1017F000002504ACAA46A346204E214AB01C08ABE3
:1018000002920396029A1E00170032CF32C6396840
:101810000F24316059460978B1460C401C5D150013
:1018200044801C00884646CD46C44A463F6817603F
:10183000424611110122595C92440180019993445E
:1018400004305145DED80B00039E9A00C0230232BB
:101850009B001343BAE70B4B084E7380063BFF3BDC
:10186000B4E710230193C1E70020B1E7034E019BC9
:10187000EBE7054B014EA9E7446301105825002012
:101880000C4B0110090400000203000070B5104D5C
:101890000520AC68002C0BD007F026FA6100002868
:1018A00000D10C480019012388420DD26B6370BD32
:1018B00007F01AFA002801D1074BF7E7074C08494F
:1018C000001901238842F1D307F014FC0300EDE76F
:1018D000EC0E00204059730771020000A086010041
:1018E000400D0300F0B5264B264C1A78A544002A7B
:1018F0002FD05A782449002A2FD09A68224894463B
:101900009A78DC681D7C002A2FD0DA781E4E002AD7
:101910002FD01B791C4F002B2FD01B4B09936346F4
:1019200004930923029180210193013B174A0390FC
:1019300000938900013B08970796069505940AA82D
:1019400009F092FF0AA8FFF78BFE8B239B009D44B2
:10195000F0BD5A780E49002ACFD19A680C489446B7
:101960009A78DC681D7C002ACFD1DA78084E002AEC
:10197000CFD11B79064F002BCFD1054BCEE7C04608
:10198000EC0E0020D4FDFFFFA0430110444B0110DA
:10199000A843011030B504008DB00B0015002821BC
:1019A0000C4A02A809F060FF200002A90DF0FAFB22
:1019B000041E09D002A80DF023FD0749201801AA32
:1019C0000DF064F9012802D000200DB030BD019B5C
:1019D0002B60FAE7504C0110745301100E4B1B782A
:1019E000002B0ED001210D4B1A784A401A701B783B
:1019F000002B0AD0D02380221B0692045A610120BA
:101A000070470122054B1A70F4E7D02380221B0691
:101A100092049A61F3E7C046F42F0020E80E0020FC
:101A2000F0B54746CE4680B5254C8046A544254CAA
:101A30008946256E676E0026BD4200D3EE1B00204E
:101A4000002D07D07001801B800080192900C00084
:101A500007F050FB1C4AA16C13928822A258236DF8
:101A600011928422A25810928022A2580F92E26F03
:101A70000E92A26F0D92626F0C92226F0B92E26E29
:101A80000A92A26E08900992079606970595E06C57
:101A90000393CB18029301914B468021049000934D
:101AA00089004346139A14A809F0DEFE14A8FFF734
:101AB000D7FD95239B009D44C0BCB946B046F0BD00
:101AC000ACFDFFFFEC0E0020584C011010B50820B3
:101AD00006F0A6F8D024802324065B00636107206B
:101AE000636206F09DF880230022A3620021072094
:101AF00006F084F8114C6378002B13D13B230022AD
:101B00000920E25406F08CF8D02380221B069200B4
:101B10009A6200210022092006F070F86378002BF9
:101B200006D110BD00220121072006F067F8E5E785
:101B300000220121092006F061F8F2E7EC0E0020F6
:101B400010B5072006F06CF8D02380221B069A629D
:101B500000210022072006F051F81D4C6378002B6D
:101B600023D1082006F05CF8D02380221B06520007
:101B70009A6200210022082006F040F86378002BCA
:101B80001FD1092006F04CF8D02380221B069200BA
:101B90009A6200210022092006F030F86378002BB9
:101BA00009D13B230022E25410BD0022012107206D
:101BB00006F024F8D5E700220121092006F01EF8DE
:101BC000EFE700220121082006F018F8D9E7C04607
:101BD000EC0E0020F8B54746CE463C2380B5484C75
:101BE0008046E25C013BE15C002A00D16AE000290A
:101BF00005D0D0228021120691620022E2540022F8
:101C00000021072005F0FAFF6378002B00D070E078
:101C10003C23E25C013BE35CD02580210026894621
:101C20003B272D0606E06A610136E35DB04523D00F
:101C30003C22A25C002A34D0002B03D04B46AB627E
:101C40000023E35500220021072005F0D7FF637829
:101C5000002B31D180225200AA61636B002BE2D0AD
:101C6000033BFDD2636B6A61002BDDD0033BFDD2E9
:101C70000136E35DB045DBD1002B06D0D0238022B6
:101C80001B069A623B230022E25400220021072017
:101C900005F0B4FF6378002B25D1C0BCB946B0462F
:101CA000F8BD002B05D14B466B616B620123E355F8
:101CB000D0E74B466B61CDE700220121072005F0FC
:101CC0009DFFC7E7002908D1D0218020090648617F
:101CD00048620121E15401239EE7D02380211B06A5
:101CE0005961012398E700220121072005F086FFB2
:101CF000D3E700220121072005F080FF88E7C046D6
:101D0000EC0E0020F0B5C6463C2300B5464CE25C24
:101D1000013BE15C002A00D169E0002905D0D02216
:101D20008021120691620022E25400220021072045
:101D300005F064FF6378002B00D06FE03C23E25C89
:101D4000013BE35CD0258021202688463B272D06D9
:101D500006E06A61013EE35D002E23D03C22A25CD6
:101D6000002A33D0002B03D04346AB620023E35557
:101D700000220021072005F041FF6378002B30D1BD
:101D800080225200AA61636B002BE2D0033BFDD29C
:101D9000636B6A61002BDDD0033BFDD2013EE35D46
:101DA000002EDBD1002B06D0D02380221B069A62A6
:101DB0003B230022E25400220021072005F01EFFF1
:101DC0006378002B24D180BCB846F0BD002B05D130
:101DD00043466B616B620123E355D1E743466B6178
:101DE000CEE700220121072005F008FFC8E70029FF
:101DF00008D1D02180200906486148620121E154C0
:101E000001239FE7D02380211B065961012399E715
:101E100000220121072005F0F1FED4E70022012174
:101E2000072005F0EBFE89E7EC0E0020F0B5C64672
:101E30003C2300B5464CE25C013BE15C002A00D14A
:101E400069E0002905D0D02280211206916200228B
:101E5000E25400220021072005F0D0FE6378002B19
:101E600000D06FE03C23E25C013BE35CD0258021A5
:101E7000102688463B272D0606E06A61013EE35D99
:101E8000002E23D03C22A25C002A33D0002B03D0AA
:101E90004346AB620023E35500220021072005F0F2
:101EA000ADFE6378002B30D180225200AA61636BB3
:101EB000002BE2D0033BFDD2636B6A61002BDDD0C7
:101EC000033BFDD2013EE35D002EDBD1002B06D0AB
:101ED000D02380221B069A623B230022E254002278
:101EE0000021072005F08AFE6378002B24D180BCF6
:101EF000B846F0BD002B05D143466B616B620123F0
:101F0000E355D1E743466B61CEE70022012107206C
:101F100005F074FEC8E7002908D1D0218020090609
:101F2000486148620121E15401239FE7D0238021C9
:101F30001B065961012399E700220121072005F0C2
:101F40005DFED4E700220121072005F057FE89E756
:101F5000EC0E0020F0B5C6463C2300B5464CE25CD2
:101F6000013BE15C002A00D169E0002905D0D022C4
:101F70008021120691620022E254002200210720F3
:101F800005F03CFE6378002B00D06FE03C23E25C60
:101F9000013BE35CD0258021A02688463B272D0607
:101FA00006E06A61013EE35D002E23D03C22A25C84
:101FB000002A33D0002B03D04346AB620023E35505
:101FC00000220021072005F019FE6378002B30D194
:101FD00080225200AA61636B002BE2D0033BFDD24A
:101FE000636B6A61002BDDD0033BFDD2013EE35DF4
:101FF000002EDBD1002B06D0D02380221B069A6254
:102000003B230022E25400220021072005F0F6FDC8
:102010006378002B24D180BCB846F0BD002B05D1DD
:1020200043466B616B620123E355D1E743466B6125
:10203000CEE700220121072005F0E0FDC8E70029D6
:1020400008D1D02180200906486148620121E1546D
:1020500001239FE7D02380211B065961012399E7C3
:1020600000220121072005F0C9FDD4E7002201214B
:10207000072005F0C3FD89E7EC0E0020F8B53B23EF
:102080009B4C0500E25C002A05D0D022802112067C
:1020900091620022E25400220021072005F0AEFDEB
:1020A0006378002B00D011E1D02180278026914851
:1020B0000906BF00760006E04E61002B13D0013800
:1020C000002800D108E14B688E61626B3B40002A1A
:1020D000F2D0033AFDD2626B4E61002AEDD0033A92
:1020E000FDD2002BEBD180239B008022EE18D02361
:1020F00052001B0659689A61606B8905C90F002858
:1021000057D15A6158689A618005C00F5A614900D9
:10211000084359689A618905C90F5A614000014313
:1021200058689A618005C00F5A6149000843596890
:102130009A618905C90F5A614000014358689A6144
:102140008005C00F5A614900084359689A618905A2
:10215000C90F5A614000014358689A618005C00F59
:102160005A614900014329700135B542C2D1D021DD
:10217000802011220906400003E04861013A002A4C
:102180000FD04B688861636B002BF6D0033BFDD208
:10219000636B4861002BF1D0033BFDD2013A002A6A
:1021A000EFD10120544A554B1188198092789A70CA
:1021B000F8BD0338FDD2606B5A61002800D1A1E759
:1021C0000338FDD25868676B8005C00F9A61002FF5
:1021D00000D19BE7033FFDD2676B5A61002F00D10E
:1021E00095E7033FFDD2490008435968676B8905AD
:1021F000C90F9A61002F00D18FE7033FFDD2676BB3
:102200005A61002F00D189E7033FFDD2400001430E
:102210005868676B8005C00F9A61002F00D183E773
:10222000033FFDD2676B5A61002F00D17DE7033F6A
:10223000FDD2490008435968676B8905C90F9A6147
:10224000002F00D177E7033FFDD2676B5A61002F63
:1022500000D171E7033FFDD2400001435868676B2E
:102260008005C00F9A61002F00D16BE7033FFDD2BC
:10227000676B5A61002F00D165E7033FFDD249002B
:1022800008435968676B8905C90F9A61002F00D10F
:102290005FE7033FFDD2676B5A61002F00D159E71A
:1022A000033FFDD2400001435868676B8005C00FB3
:1022B0009A61002F00D153E7033FFDD2676B5A614B
:1022C000002F00D14DE7033FFDD24AE70022012154
:1022D000072005F093FCE7E6094B084A31CB31C2F1
:1022E00013CB13C21988002011809B7893705FE78D
:1022F000EC0E0020204E0000B44D011038280020C4
:10230000B84D0110F0B557464E464546DE463C23D3
:10231000E0B5C24C0D00E15C013B92460600E25C78
:1023200083B0002900D14DE2002A05D0D0228021BF
:10233000120691620022E25400220021072005F0DB
:102340005DFC6378002B00D068E23C23E15C013B3C
:10235000E25C40231E43B046280CC0B20704B946D5
:1023600047462B0E9C462E0A1B023B433706BB46B4
:102370004F463B435F463B43122700936B46B946AB
:102380001D7143464F469B007B405BB2DB430827F1
:10239000DB17BB4347461B335B00FF005F40EB4648
:1023A0003F0600D52DE247465B003F015F403F06F8
:1023B00003D50927B9464F467B4047465B007F015E
:1023C0005F403F0603D50927B9464F467B40474645
:1023D0005B00BF015F403F0603D50927B9464F4662
:1023E0007B4047465B00FF015F403F0603D509275E
:1023F000B84647467B4067465B005F403F0603D5D3
:102400000927B84647467B4067465B007F005F4030
:102410003F0603D50927B84647467B4067465B0021
:10242000BF005F403F0603D50927B84647467B40BB
:1024300067465B00FF005F403F0603D50927B846AB
:1024400047467B4067465B003F015F403F0603D540
:102450000927B84647467B4067465B007F015F40DF
:102460003F0603D50927B84647467B4067465B00D1
:10247000BF015F403F0603D50927B84647467B406A
:1024800067465B00FF015F403F0603D50927BC4656
:1024900067467B4007005B005F403F0603D5092786
:1024A000BC4667467B405B0047005F403F0603D564
:1024B0000927BC4667467B405B0087005F403F06BC
:1024C00003D50927BC4667467B405B00C7005F40D9
:1024D0003F0603D50927BC4667467B405B000701E2
:1024E0005F403F0603D50927BC4667467B405B003B
:1024F00047015F403F0603D50927BC4667467B403E
:102500005B0087015F403F0603D50927BC4667464D
:102510007B405B00C0015840000601D509204340C4
:1025200030005B005840000601D5092043405B00A5
:1025300070005840000601D5092043405B00B00000
:102540005840000601D5092043405B00F000584088
:10255000000601D5092043405B00300158400006C9
:1025600001D5092043405B0070015840000601D5A9
:10257000092043405B00B0015840000601D5092006
:1025800043405B00F6015E40360601D5092043401A
:102590005B0018006840000601D5092043405B003D
:1025A00068005840000601D5092043405B00A800A0
:1025B0005840000601D5092043405B00E800584020
:1025C000000601D5092043405B0028015840000661
:1025D00001D5092043405B0068015840000601D541
:1025E000092043405B00A8015840000601D509209E
:1025F00043405B00ED015D402D0601D509204340BD
:1026000001205B000343584643710123D0265F46F7
:10261000984636068023072599461FE0EC0E0020D9
:10262000002B4BD0002A04D04B460022B3623B2340
:10263000E25400220021072005F0E0FA6378002B25
:1026400047D180225200B261636B002B1DD17261B1
:102650003B23E25C013D24D33C23E15C3B784046D4
:102660002B4103400029DBD1002A22D1002B2AD0A4
:102670004B4673614B46736242463B23E2548022D1
:102680005200B261636B002BE1D0033BFDD2636B60
:102690007261002BDCD0033BFDD23B23E25C013DA9
:1026A000DAD26B46013706339F4218D03C23E15CF7
:1026B000B0E7002B0AD14B46B361C2E74B46B3618A
:1026C000002ABED1D7E74B46B361D3E74B467361CF
:1026D000B7E700220121072005F090FAB1E7002AB0
:1026E00006D0D02380221B069A623B230022E254AC
:1026F00000220021072005F081FA6378002B00D02A
:1027000086E05346002B00D180E00622002150468F
:1027100007F0F6FC80258023D02080269B00000651
:102720006D0007E04561002A14D0013B9BB2002BED
:1027300000D16BE042688561616B32400029F1D0C5
:102740000339FDD2616B45610029ECD00339FDD21C
:10275000002AEAD180220223D02080259146793AAE
:102760009446063A93465B4200066D0012E04561CE
:10277000002A0BD061465E4619408E40DA43310094
:10278000564692B2D208B75C3943B154013B1A00A5
:1027900031320FD04946426885610A40616B002999
:1027A000E5D00339FDD2616B45610029E0D00339E2
:1027B000FDD2DDE7012003B0F0BCBB46B246A9461E
:1027C000A046F0BD002A17D1D02280201206506109
:1027D00050620122E25440231E43B04642462B0E73
:1027E000280C9C46C0B21B0213432E0A0704320673
:1027F0003B4313430122BFE5D02380201B065861D1
:10280000A7E50927B9464F467B40CCE50020D2E733
:1028100000220121072005F0F1F972E700220121D1
:10282000072005F0EBF990E5F0B5CE46474680B5B8
:10283000070083B08946FFF7F9FA3B049846002663
:102840004427254D6A4641460720FFF75BFD041EDD
:1028500015D1EB5D002B03D05723EB5C002B04D08C
:10286000287C002801D0FFF7B5F90136042EE9D104
:102870000024200003B0C0BCB946B046F0BD4B46B2
:10288000002B1AD10026442780216A461020890097
:10289000FFF738FD002810D1EB5D002B03D0572344
:1028A000EB5C002B04D0287C002801D0FFF792F9C4
:1028B0000136042EE8D10024DBE74423EB5C002B37
:1028C00003D05723EB5C002BD3D0287C0028D0D03A
:1028D000FFF780F9CDE7C046EC0E0020F0B5DE46EC
:1028E0004E4645465746E0B585B001933C23B94C6A
:1028F0000D00E15C013B93460600E25C002900D13B
:102900003FE1002A05D0D0228021120691620022E8
:10291000E25400220021072005F070F96378002BB3
:1029200000D0E9E140203C33E15C013BE25C304314
:102930000023122602AF7B707B803B7183007340C3
:102940005BB2DB430826DB17B3431B335B00C600D7
:102950005E403870360601D5092673405B000601DB
:102960005E40360601D5092673405B0046015E4095
:10297000360601D5092673405B0086015E403606A7
:1029800001D5092673405B00C0015840000601D5FF
:102990000920434058005B0601D5092358404300F5
:1029A000400601D50920434058005B0601D50923A4
:1029B00058404300400601D50920434058005B06BB
:1029C00001D5092358404300400601D50920434062
:1029D00058005B0601D5092358404300400601D545
:1029E0000920434058005B0601D5092358404300A5
:1029F000400601D50920434058005B0601D5092354
:102A000058404300400601D50920434058005B066A
:102A100001D5092358404300400601D50920434011
:102A200058005B0601D5092358404300400601D5F4
:102A30000920434058005B0601D509235840430054
:102A4000400601D50920434058005B0601D5092303
:102A500058404300400601D50920434058005B061A
:102A600001D5092358404300400601D509204340C1
:102A700058005B0601D5092358404300400601D5A4
:102A80000920434058005B0601D509235840430004
:102A9000400601D50920434058005B0601D50923B3
:102AA00058404300400601D50920434058005B06CA
:102AB00001D5092358404300400601D50920434071
:102AC00058005B0601D5092358404300400601D554
:102AD0000920434001205B0003437B710123D02682
:102AE000AA4698463D0036068023072799461DE0F2
:102AF000002B5ED0002A04D04B460022B3623B2359
:102B0000E25400220021072005F078F86378002BBA
:102B10005AD180225200B261636B002B1DD17261C9
:102B20003B23E25C013F24D33C23E15C2B7840460D
:102B30003B4103400029DBD1002A35D1002B3DD099
:102B40004B4673614B46736242463B23E2548022FC
:102B50005200B261636B002BE1D0033BFDD2636B8B
:102B60007261002BDCD0033BFDD23B23E25C013FD2
:102B7000DAD202AB013506339D422DD03C23E15C15
:102B8000B2E7002A06D0D02380201B0658614020DF
:102B90003043CDE6D02280201206506150620122DF
:102BA0004020E2543043C3E6002B0AD14B46B361C8
:102BB000AFE74B46B361002AABD1C4E74B46B361E4
:102BC000C0E74B467361A4E700220121072005F00E
:102BD00015F89EE7EC0E00205546002A06D0D023BB
:102BE00080221B069A623B230022E254002200212D
:102BF000072005F003F86378002B00D074E0002D67
:102C000000D169E05B46002B00D173E02A00303A26
:102C1000531E9A410B2352421340019A06339A42A3
:102C200000D267E00021584607F06AFA8026D020DB
:102C3000802380270006760042688661616B9B00D6
:102C40003A4000290CD14661002A13D0013B9BB2C7
:102C5000002B4FD042688661616B3A400029F2D068
:102C60000339FDD2616B46610029EDD00339FDD2F5
:102C7000002AEBD180220226D02080279446793A80
:102C800001239146AA46764200067F00019411E096
:102C90004761002A09D04946012531408D402C006A
:102CA0005D46DA08A95C0C43AC5401339BB2013E8B
:102CB0009A4511D06146426887610A400199496B83
:102CC0000029E5D00339FDD20199496B47610029FC
:102CD000DFD00339FDD2DCE7012005B0F0BCBB46F4
:102CE000B246A946A046F0BD00220121072004F00B
:102CF00085FF84E70020F0E700220121072004F08F
:102D00007DFF3C23E15C013BE25C40E7F0B5DE4641
:102D10004E4645465746E0B58822CBB000210E907E
:102D200007F0EEF9D02212065368CF4C1B06D90FDC
:102D30003823E15453680800DB05DD0F3923E554DF
:102D4000536829009B05DD0F3A232A00E554C74D3F
:102D500022AEC74B029201912A00A02100903000C0
:102D6000069508F081FDC34B32001900012007933E
:102D7000FEF752FC01200021404209F0E7FC01204F
:102D80000021404209F0E2FC3C230122E254A26807
:102D9000B94BB3460D929A4200D90EE300230D932E
:102DA0000F93D025FEF792FE38222D066968392749
:102DB0000906CB0FA35419006B689046DB053A2631
:102DC000DA0F1000E2556B689B05DA0FA2550292EC
:102DD000069AAA4B019000915846A021924608F00D
:102DE00043FD079B5A46190001209946FEF714FC43
:102DF00001200021404209F0A9FC012000214042AD
:102E000009F0A4FCFFF7A6F8404669680906CB0F55
:102E1000235419006B68DB05DA0F1000E2556B686C
:102E20009B05DA0FA255964B0292019052460091F3
:102E30005846A02108F018FD5A4649460120FEF7E1
:102E4000EBFB01200021404209F080FC0120002121
:102E5000404209F07BFC404669680906CB0F2354C9
:102E600019006B68DB05DA0F1000E2556B689B05F3
:102E7000DA0FA255834B02920190524600915846B8
:102E8000A02108F0F1FC5A4649460120FEF7C4FB98
:102E900001200021404209F059FC0120002140425C
:102EA00009F054FC0023002200210020FFF716FD4A
:102EB000404669680906CB0F235419006B68DB058F
:102EC000DA0F1000E2556B689B05DA0FA2556E4BC6
:102ED00002920190524600915846A02108F0C4FC8D
:102EE0005A4649460120FEF797FB01200021404247
:102EF00009F02CFC01200021404209F027FCFEF7DC
:102F000001FF012005F05AFC404669680906CB0F15
:102F1000235419006B68DB05DA0F1000E2556B686B
:102F20009B05DA0FA255594B02920190524600912F
:102F30005846A02108F098FC5A4649460120FEF761
:102F40006BFB01200021404209F000FC0120002120
:102F5000404209F0FBFB0023002200210020FFF784
:102F6000BDFC404669680906CB0F235419006B6805
:102F7000DB05DA0F1000E2556B689B05DA0FA255EE
:102F8000434B02920190524600915846A02108F00E
:102F90006BFC5A4649460120FEF73EFB012000210A
:102FA000404209F0D3FB01200021404209F0CEFB52
:102FB000FEF7A8FE404669680906CB0F23541900A6
:102FC0006B68DB05DA0F1000E2556B689B05DA0FC2
:102FD000A255304B02920190524600915846A021D2
:102FE00008F042FC5A4649460120FEF715FB012035
:102FF0000021404209F0AAFB01200021404209F0D3
:10300000A5FB40466A681206D30F1A0023546B686A
:103010005846DB05D90FE1556B689B05DD0FA555BB
:103020001D4B01910092A0215246029508F01CFC14
:103030005A4649460120FEF7EFFA0120002140429E
:1030400009F084FB01200021404209F07FFB134B73
:10305000984600239A4608930A93114B0B93114B01
:103060000C9300253DE0C046EC0E0020F84D011009
:10307000F04D0110204E0110400D0300284E0110AC
:10308000384E0110484E0110584E0110644E011088
:10309000744E0110804E01108C4E0110D863011047
:1030A000984E0110AC4E011043460120196810AA39
:1030B000FFF728F9061E059048D14423E35C002B56
:1030C00003D05723E35C002B04D0207C002801D0E0
:1030D000FEF780FD0120013505F070FB282D00D1A1
:1030E00085E0AB07E0D16B1C0B9A009340210A9B53
:1030F00012A808F0B9FBD0203822000643683A270E
:103100001B06D90FA15442680B00D205D10F3922FA
:10311000A15442689205D00FE055069A02900191A1
:103120000093A02112AB584608F09EFB5A4607991F
:103130000120FEF771FA01200021404209F006FB50
:1031400001200021404209F001FBADE7D0203822E8
:10315000000643683A271B06D90FA15442680B00AA
:10316000D205D10F3922A1544268A1469205D00F51
:10317000E055069A029001910093A0210C9B5846BD
:1031800008F072FB5A4607990120FEF745FA012024
:103190000021404209F0DAFA01200021404209F002
:1031A000D5FA00239A46093B00229C460720544644
:1031B00008950996634601279B1A03409F403B00F0
:1031C00095B2ED080CAF013510377D5D64002B40E2
:1031D0005D1EAB4101321C43202AEBD1A24653466F
:1031E0004C46089D099E002B59DB089665E753461F
:1031F000002B00DA28E304220A9B904401330A934F
:10320000032B00D02DE7CD4BD025382039262D06B5
:103210006A6881461206D10F21540A006968C905FF
:10322000C80FA055010068688005C70F0297381CB9
:103230003A27E05501910092A021069A584608F0DD
:1032400013FB5A4607990120FEF7E6F901200021F9
:10325000404209F07BFA01200021404209F076FA51
:103260005346002B52DB089B002B1ED00E9AB44B0A
:10327000283261CB61C2110025CB25C105CB05C128
:103280001B880B800F9B002B2AD1002399464846B0
:103290004BB0F0BCBB46B246A946A046F0BD059B6C
:1032A00099464B460893A74BAEE749466B683800F2
:1032B0001B06DA0F625413006A68D205D10F0F00A3
:1032C000A1556A689205D10F21540E9801919E4A2A
:1032D00060212830009708F0C7FA0F9B002BD4D04C
:1032E0000D9D0520A560002D00D09BE105F0FCFCA4
:1032F000002800D195E2954B95490D930D9BC01880
:103300000123884200D398E16363BEE749466A68B7
:103310001206D30F63541A006B68DB05D80F010047
:10332000A0556B6844269B05D80FE055894B029049
:1033300001910092A021069A584608F095FA5A4643
:1033400007990120FEF768F901200021404209F0A9
:10335000FDF901200021404209F0F8F93C23002248
:10336000E25452460E9B00255A60FEF75FFD57233C
:10337000984611235A4688210220FFF7AFFA002809
:103380002DD1A35D002B03D04346E35C002B04D07A
:10339000207C002801D0FEF71DFC0135042DE8D16A
:1033A0000E996D4B28310A0061CB61C223CB23C239
:1033B000196811609B88938064E70520A36005F07D
:1033C00093FC002800D11BE1614B644AC018012323
:1033D000904200D93BE2636301230F93E1E40E9D29
:1033E00000210A350F22280006F08AFE03214942F7
:1033F00007268C46A046340001270C40A7408AB21D
:10340000D3433C005F469BB2DB08FB5C1C420BD005
:10341000634601249A1A8B1C33409C40230092B2CD
:10342000D208AC5C2343AB5401390B007B33E2D1AF
:1034300044464423E35C002B03D05723E35C002B7A
:1034400003D0207C002800D0F4E057230025442638
:1034500098468021032010AA4902FEF753FF002856
:1034600012D1A35D002B03D04346E35C002B04D0B4
:10347000207C002801D0FEF7ADFB0135042DE8D1FA
:103480000E99374B28318EE70CAB1A7C8146930698
:10349000D106DB0FC90F5B000B431107C90F5B009F
:1034A0000B4351075B00C90F194393074900DB0F1A
:1034B0000B4301215B000A4082461343032B00D0DB
:1034C000A1E04423E35C002B03D05723E35C002BF3
:1034D00004D0207C002801D0FEF77CFB12ABD02565
:1034E000069353460427CA462D0607933C23E25C05
:1034F000013BE15C002A00D176E1002905D0D02211
:103500008021120691620022E2540022002107204D
:1035100004F074FB6378002B00D07CE13C23E25C78
:10352000013BE15C0698012680460E4B05971293FD
:103530000D4B838080230727994635E0E04D01102D
:10354000FC4E0110D44D0110BC4E0110A0860100AC
:10355000400D0300204F01108C4F01107F1A060010
:103560006C4F01104900010000F1FFFF002B6ED0ED
:10357000002904D04B460022AB623B23E2540022D8
:103580000021072004F03AFB6378002B6AD18022E7
:103590005200AA61636B002B1CD16A613B23E15C82
:1035A000013F23D33C23E25C43461B783B4133403D
:1035B000002ADBD1002945D1002B4DD04B466B6151
:1035C0004B4680226B623B235200E654AA61636B38
:1035D000002BE2D0033BFDD2636B6A61002BDDD090
:1035E000033BFDD23B23E15C013FDBD201230CAA6C
:1035F00098441D339B1898453AD03C23E25C99E7E8
:103600003A23FF33E7E60E99934B28310A0061CB4A
:1036100061C203CB03C21B8813800F9B002B00D118
:1036200033E65DE605F060FB6900002800D065E642
:103630008A4863E6FEF7CEFA07E705F05BFD030074
:10364000636322E6002B0AD14B46AB619FE74B46F2
:10365000AB6100299BD1B4E74B46AB61B0E74B4669
:103660006B6194E700220121072004F0C7FA8EE77E
:10367000059F002904D080230022AB62453BE25421
:1036800000220021072004F0B9FA6378002B00D053
:10369000B5E011220021584606F032FD802380203B
:1036A00080269B00400006E06861002A13D0013BA1
:1036B0009BB2002B3FD06A68A861616B3240002941
:1036C000F2D00339FDD2616B68610029EDD0033976
:1036D000FDD2002AEBD107220223D0218020904680
:1036E000063AD146802694465B420906400013E024
:1036F0004861002A0CD0454667461D40AF40DA437A
:103700003D005F4692B2D208BF5C3D435F46BD5468
:10371000013B1A00893223D04A688861656B3240C8
:10372000002DE5D0033DFDD2656B4861002DE0D052
:10373000033DFDD2DDE74423E35C002B03D0572398
:10374000E35C002B04D0207C002801D0FEF742FA75
:10375000013F002F00D0C9E60E99414B283122E6E7
:103760000E9D002119350F22280006F0C9FC032107
:10377000494207268846A446340001270C40A7404A
:103780008AB2D3433C005F469BB2DB08FB5C1C4221
:103790000BD0434601249A1A8B1C33409C402300D3
:1037A00092B2D208AC5C2343AB5401390B007B339B
:1037B000E2D101230E9A6446138113700F9B002BF4
:1037C00000D164E50D9D0520A560002D31D005F0E8
:1037D0008BFA6900002800D120480D9BC0180123F6
:1037E000884221D2636352E500290ED1D021802086
:1037F0000906486148620121E154079992E60022D6
:103800000121072004F0FAF943E7D02380211B06A9
:103810005961079986E600220121072004F0EEF99C
:103820007CE6104B636330E505F064FC03006363E2
:103830002DE505F059FA002803D00B4B0B490D93E9
:10384000CBE7084B636322E5089B994629E50849C5
:1038500005F050FC0300BEE5344F011040597307DA
:103860004C4F011071020000A0860100400D0300C2
:10387000801A0600F0B5D64646464F46C0B5A4B0FD
:1038800002AC0600200088469246FFF73FFA031E6E
:1038900081465DD04246E37921895B06DB0F3180AA
:1038A000137000223C23364C0720E25409046A4678
:1038B00006254427FEF726FD00281ED1E35D002BD8
:1038C00003D05723E35C002B04D0207C002801D0D8
:1038D000FEF780F931886A4609040320013DFEF7AE
:1038E00011FDFEF7A3FA002D3DD031886A4607206E
:1038F0000904FEF707FD0028E0D043461B78002BA3
:103900001FD10425442680216A4610208900FEF735
:10391000F9FC002815D1A35D002B03D05723E35CED
:10392000002B04D0207C002801D0FEF753F9013D84
:10393000002DE8D11D225046124906F0E7FB002376
:103940009946484624B0E0BCBA46B146A846F0BD08
:103950002833E35C002B10D10B4B602150460B4AFF
:1039600007F082FFEBE728225046094906F0CEFB1C
:1039700043461B78002BE4D1C3E70CABEDE7C04610
:10398000EC0E0020C04F0110AC4F0110BC4F0110D5
:10399000E04F0110F0B5DE4657464E464546E0B5CD
:1039A000CD4CA544B5AB9B4601235A46138000235A
:1039B00004AA6332137004A9633358461DAA591828
:1039C000FFF758FF002800D17BE10623D92699464E
:1039D000F60004ABF618C14BC14C1993C14B1893B8
:1039E0005723042544279846062332003021082017
:1039F000FEF774FF00285BD1E35D002B03D0434644
:103A0000E35C002B04D0207C002801D0FEF7E2F814
:103A1000013D002DE8D1189A1DAB23CA23C323CA48
:103A200023C31188198092789A705B461F884423BB
:103A30009846133304259A463F0432003900072084
:103A4000FEF760FC00280FD14346E35C002B03D057
:103A50005346E35C002B04D0207C002801D0FEF705
:103A6000B9F8013D002DE8D104AB63331B78002B7E
:103A70002CD0FEF7DBF901235B4299444B46002B27
:103A8000AED104AB64331B78002B4CD1964BC821CC
:103A90003000964AC90007F0E7FE3000FDF7E0FD70
:103AA000934B9D44F0BCBB46B246A946A046F0BD30
:103AB00035A8FEF7E3FA002837D1199A1DAB23CABF
:103AC00023C303CA03C312781A70AEE74423844D9C
:103AD000EB5C002B22D1287C002801D0FEF77AF87D
:103AE00044239846133304279A468021320010203D
:103AF0008900FEF707FC0028BBD14346EB5C002B96
:103B000003D05346EB5C002B04D0287C002801D066
:103B1000FEF760F8013F002FE7D1AAE75723EB5CDF
:103B2000002BD8D1DCE71DABB1E7C323802504A867
:103B30001B18594601229C460F276E48AD0001E034
:103B40000132023163469B5C1C093B40045DC35C4F
:103B50000C704B70AA42F3D1802359460022DB003F
:103B6000CA546A9BC4279946E22304AAD219D35C9B
:103B700004AA9A46E023D219D15C04AAD219033BC5
:103B8000D35C08001A00199318910023002106F055
:103B9000A3F9430BCC041C199023390004AAD719AC
:103BA0009122FB5C04AF7F18BA5C1B021204134322
:103BB0008F2204AF7F18BA5C04AF13431B93932387
:103BC00094227F18FB5C04AF7F18BA5C1B021204BE
:103BD0001343922204AF7F18BA5C04AF13431A93C5
:103BE00096237F1804AAFF5C52180133D35C3F026E
:103BF0001B041F43952304AA5218D35C04AA1F4335
:103C000099235218D35C9A22C50404A84018825CF8
:103C10001B0212041343982204A84018825C00215E
:103C2000134398465A462300169240462A0006F04F
:103C300053F92A001490159123003800002106F052
:103C40004BF92A001290139123001A98002106F0D4
:103C500043F9109011911B992A008B46230008000C
:103C6000002106F039F90C971A9F42460B975F46E0
:103C7000199B0E900F910D920A970895099407933E
:103C8000189B04AA0693A023C432D35C35AA0593DB
:103C9000B323D35C4A46049353465B0403935346D1
:103CA00002934B46C821DB0D520200920193300073
:103CB0004B46114AC90007F0D7FD3000FDF7D0FC94
:103CC000EEE6D92604ABF600F61804AB64331B7895
:103CD000002B00D1DAE626E7E4F2FFFF1C500110CA
:103CE000EC0E0020D4510110085001103450011086
:103CF0001C0D0000C463011068500110F0B54E4661
:103D0000DE4657464546E0B5C7B0109346239E4E63
:103D10000F920B900591F35A1A1C002B00D101222F
:103D200093B2B568099304F0DFFE002900D11CE2CC
:103D3000FA220023920005F01BFA08900023934A10
:103D4000137007920022924B90469D4200D855E294
:103D50000B9B00275B020A930623994600231193CD
:103D60008C4B13950E93434612934B46B8460693DD
:103D7000336E0133336604F0B7FE002900D177E0DB
:103D8000FA220023920005F0F3F9089BC01A824B37
:103D9000984200D976E0059B0A9D002B00D00B9D30
:103DA0005723032444279A46B36E29000133112078
:103DB00018AAB366FEF7A6FA002800D07CE0F35DEF
:103DC000002B03D05346F35C002B04D0307C00283A
:103DD00001D0FDF7FFFE013C002CE5D10123984402
:103DE000F36E0E9A0133F366079B13CA13C311884F
:103DF000198092789A704346012B09D9119B012BA7
:103E000000D8DBE1FDF706FC002801D000F07FFCC4
:103E10004423F35C002B03D05723F35C002B04D026
:103E2000307C002801D0FDF7D5FE05990998FEF7F2
:103E3000FBFC002869D0069B013B0693002B97D121
:103E4000129B139D98464346002B00D0EEE1109B39
:103E5000002B03D0509B002B00D075E000239B4625
:103E6000584647B0F0BCBB46B246A946A046F0BD96
:103E7000FA21890005F03EF9089BC01A464B98428A
:103E800000D888E7129B079A9846444B139D13CBA2
:103E900013C213CB13C21B681360FDF7BBFB0028D2
:103EA000D1D03F4A3F490120FDF7B6FB0120002158
:103EB000404208F04BFCC6E70F9B8146002B1ED00A
:103EC0005723F35C002B00D155E1FDF7A3FB02283B
:103ED00000D9E9E1344B1A78002A00D1B8E1334C1B
:103EE0002378002B6ED1079A314B13CB13C203CB2F
:103EF00003C21B881380FDF78DFB012834D8336F74
:103F0000013333670023984682E7B36F079A013382
:103F1000B367284B13CB13C213CB13C219681160BC
:103F2000998891809B799371FDF774FB012800D8E3
:103F300081E7214A1B490220FDF76EFB0120002189
:103F4000404208F003FC76E7079A1378002B00D074
:103F5000DFE3104B01930623184A009350990B9B03
:103F6000109807F081FC79E70220154A0D49FDF70A
:103F700053FB01200021404208F0E8FB336F01337E
:103F800033670023984643E7EC0E002038280020D2
:103F90009F86010000520110701700003852011076
:103FA00054520110204E0110F82F0020F72F00204E
:103FB00004540110B4540110D4540110F8540110E9
:103FC0001C540110E34B9B468023E34D5B022A689F
:103FD0001A93931D1B03D2011343E04A052013409B
:103FE0008022D20513431B93C0231B031C931D92F5
:103FF00004F07AFE05F0DCFF041CB06805F0D8FF81
:10400000D74905F0A0FF011C201C05F088FFFE2108
:104010008905041C05F0C6FFA246002800D05FE316
:104020001B99D04B1D9A194090231B050B431B93E2
:10403000CD4BEC211A409423DB0213431D931C9AB1
:10404000CA4B89051A4081231B04134350461C9315
:1040500005F062FF071C05F0D3FF84B20023002C9B
:1040600000D02DE324041C435B461968C04B082094
:10407000C918090D0631C9B21A9403F0A7FD5B46B1
:104080001968BB4B0920C918090D0631C9B203F0E4
:104090009DFDB84B0124984619685B4608221868B4
:1040A000012300940AF064F8434619685B461868D7
:1040B00000230922009301330AF05AF84346196895
:1040C0005B462A6818681AAB0AF0AAF85B461A68B9
:1040D00043462000196813688840834313604B00EF
:1040E0005B18A548DB00D3181B1880200006186059
:1040F0001860802304318C409B01D218146004F0B6
:10410000F3FC5B4604000D00B34601271E000C942F
:104110000D95434619683C000B0010339C403068F5
:104120002300426814001C401A4200D1C7E004F08A
:10413000DBFC0C9B0D9CC01AA141002903D1FA2382
:10414000DB009842E5D9079A8C4B5E4613CB13C22D
:1041500013CB13C21B781370FDF75CFA002800D153
:10416000CDE60120864A874901E7FA21890004F05B
:10417000C1FF0890E2E50F98FDF780FF002800D10D
:10418000BDE6129BCB469846139D736E0133736652
:104190004346002B00D163E60520B560002D00D119
:1041A000DBE304F0A1FD6900002800D1764828185F
:1041B0000123884200D363E3736351E60133119313
:1041C000FDF784FCFDF79EFD172312A91EAA5918BE
:1041D0001AA8FFF74FFB002800D085E2FDF71AFA76
:1041E000002800D114E6694A66490120FDF714FA57
:1041F00001200021404208F0A9FA09E6644B05209D
:10420000B36004F071FD002800D184E2604B614A84
:10421000C0180123904200D938E37363FDF7FAF91F
:10422000002800D07EE20123984691E50520B56084
:10423000002D00D181E204F057FD6900002800D173
:10424000514828180123884200D3A8E27363FEE591
:104250000122514C514821001A7009F0D7FE002864
:1042600000D194E24D483B4B00219B46186009F079
:10427000B1FE404B98461860013000D0C5E2484C72
:104280002378002B00D09FE6FDF7C4F9002800D06A
:1042900001E32378002B00D096E6079A414B23CB0D
:1042A00023C21B6813601BE63F4A36490320FDF713
:1042B000B3F901200021404208F048FA0AE6330031
:1042C0008F405E46394A9B460B1D9B001A5003687F
:1042D00005211F4307600023B2683548149404F099
:1042E00047FF344B1590984200D249E2FDF792F90E
:1042F000022800D959E204F0F7FB0D0008218C4692
:104300002D4942468A46414604005B46B0465F4618
:104310000E0012680C940D951B68944464460121AC
:104320005868A14004000C40A346084200D18CE02C
:1043300004F0DAFB0C9C0D9D001BA9413B68326820
:1043400000293BD1159CA04238D808318C469444B2
:10435000E4E7C046E40E0020302B0020FFFFFF9F63
:1043600000004040FFFFFFE0FF03F0FFFFFF0A3EB9
:104370000000E0AFE42F0020D0100000E452011054
:1043800000530110204E0110405973076054011072
:10439000A08601003F0D0300E463011000003050CF
:1043A000F72F0020D4520110785201100F10000096
:1043B000002C72AC881300004C2B0020012004005C
:1043C000944019684646A143196051008918DE4C93
:1043D0000432C900904059188022091980249201A2
:1043E0009B1824060C600C6018600799D74B15CBFE
:1043F00015C11A880A809B788B70FDF70BF900288D
:1044000000D0EBE10521082003F0E0FBD02480235D
:1044100024065B00636205216361092003F0D6FB7B
:10442000092003F0FDFB80239B00A36200220021F2
:10443000092003F0E3FB7378002B00D153E5002241
:104440000121092003F0DAFB4DE56146544689005D
:104450001498C9582154411CBD481491814200D080
:104460005CE738005F4683460120310090404646B5
:1044700088461968D0248143196051008918B248D0
:10448000C900591809188020000608600860012139
:10449000043291400A00802189015B181A600521CD
:1044A000082003F093FB802324065B006362052150
:1044B0006361092003F08AFB092003F0B1FB80232C
:1044C0009B00A36200220021092003F097FB737870
:1044D000002B00D04CE2802451460022A4009D48CD
:1044E00054440B781B0253405D001BB2002B00DAD2
:1044F00045406A002D0400D542405300120400D507
:1045000043405A001B0400D542405300120400D51A
:1045100043405A001B0400D542405300120400D50A
:1045200043405A0092B21B0400D5424001318C42F4
:10453000D7D180245346A4001B5B14925BBA9BB274
:104540001593934200D1EAE15146834A53468A5C6F
:104550003320944655211B5D5546B2467F4E0C9341
:10456000EB5D1A091B01D218D2B293089200824364
:1045700003401343DBB25A085B000A408B431A43E3
:10458000F2550137A742EBD1350080210C9B5646EE
:104590002A009A460027890068186E491478240278
:1045A0007C40670024B2002C00DA4F407B003F04BF
:1045B00000D54B405C001B0400D54C406700240430
:1045C00000D54F407C003F0400D54C4067002404D8
:1045D00000D54F407C003F0400D54C406700BFB27F
:1045E000240400D54F4001329042D7D153463320A6
:1045F00055211A091B01D218D2B2930892008243A6
:1046000003401343DBB23C005F085B008B439A46D8
:1046100063461A091B01D218D2B293089200824352
:1046200003401343DBB25A085B000F400A408B4340
:1046300051461A430F433902D7B20F43BFB2A742C4
:1046400000D133E1FCF7E6FF012813D9159BA02127
:10465000434A00930297149B01941EA807F004F9A3
:10466000404902201EAAFCF7D7FF0120002140424A
:1046700008F06CF8736F079A013373673A4B13CBEA
:1046800013C21968012011601B79040013715B4685
:104690001A684346196813688C40A34313604B00A3
:1046A0005B18294CDB00D3181B19802424061C60DE
:1046B0001C608023043188409B01D218106012E4F2
:1046C000200005F075FC011C381C05F022FC872138
:1046D000C90505F038FC05F093FCC3B21B02C1E428
:1046E000FE239B059A469BE412AB1A8C4623F2529A
:1046F00012AB0992DA7D45230592F254FCF78AFF4A
:10470000002800D0ACE000239846FFF781FB174A51
:104710006AE513001EE4164B7363FCF77BFF002869
:1047200000D180E5134A0F490120FCF775FF0120F5
:104730000021404208F00AF875E504F0D5FA002897
:104740005FD00D490D4D7CE5D0100000485301109D
:10475000020200002110000001020000582D00207C
:10476000A0530110204E0110F05301108C54011081
:104770007102000010520110400D0300A0860100DC
:104780001593FCF747FF022800D8B4E50DE021009F
:104790007A4809F03BFC00286DD0784863E504F0C6
:1047A000A9FC03007363FFF752FB7549504605F0FF
:1047B000CAFB05F025FC159903000091714AA02160
:1047C0001EA807F051F870491EAA0320FCF724FF29
:1047D00001200021404207F0B9FF8CE56B4BA0217E
:1047E00000936B4A149B1EA807F03EF866491EAA68
:1047F0000120FCF711FF01200021404207F0A6FF35
:1048000000E6644B7363FFF722FB5B4621001868E8
:1048100009F03AFC0123604D604C28602370FCF7DE
:10482000F9FE012800D82BE55A46544B12689A42EB
:1048300000D190E05A4B29685A4A019141460968D3
:104840001EA80091A02107F00FF84F491EAA0220D0
:10485000FCF7E2FE01200021404207F077FF0FE560
:10486000514A49490120FCF7D7FE0120002140426E
:1048700007F06CFF47E74D4B484C9B461860FFE440
:1048800004F038FC03007363FFF7EAFA484904F0C8
:1048900031FC0300C1E4474A3B490120FCF7BCFE60
:1048A00001200021404207F051FFF2E4129B2F004B
:1048B0009846CB46139DFCF7ADFE01280FD9230087
:1048C000A0213D4A1EA806F0CFFF2F4902201EAAB4
:1048D000FCF7A2FE01200021404207F037FF8022B2
:1048E000390092000F9805F011FCD02280211206A9
:1048F000490053689161736B002B07D151612F4BB5
:1049000007991A880A809B788B703EE4033BFDD29E
:10491000736B5161002BF2D0033BFDD2EFE7129B8A
:10492000CB469846139DFCF775FE01280FD9A021B0
:10493000234A149B1EA806F097FF134902201EAAC3
:10494000FCF76AFE01200021404207F0FFFE8022B2
:1049500051469200C6E71B4B6DE704F0C5F90028ED
:1049600002D01349184D22E40A4B7363FFF778FA1B
:1049700000220121092003F041F9ACE5000020509C
:1049800000007A441C530110204E01100202000066
:104990005853011071020000302B0020F72F002027
:1049A000F85101109052011034540110E40E00200F
:1049B000400D0300B452011078530110B44D0110A2
:1049C000D8530110F0510110A0860100F0B5DE4669
:1049D00057464E46454699465623E0B54B4D8BB05B
:1049E0000795EB5C834614000127002B00D17CE087
:1049F000A32380269B00ED18149BB60098460691D1
:104A000005E05823079AD35C9F4253D801374346A9
:104A10000699009322004B4658468A46FFF76EF9E6
:104A20000028EED04346514600932A004B46584694
:104A30000691FFF763F982460028E2D08022290020
:104A4000200092000AF04EF900285CD0069A00235C
:104A5000924602E00133B34240D0E15CE85C81421F
:104A6000F8D05246089106924A46002AC9D04246DA
:104A7000002AC6D05A1C511E8A4152421340244A71
:104A8000099258221100079A525C08999446012213
:104A900094446246029004920191099A009341461F
:104AA0005B464846039706F0DFFE5823079AD35C1F
:104AB0009F42ABD94B46002B06D0149B002B03D052
:104AC0004B461B78002B17D00023984640460BB06E
:104AD000F0BCBB46B246A946A046F0BD534606937D
:104AE000002300200893013BBEE7149B00934B4634
:104AF000FFF704F98046E9E75B464846054A149902
:104B000006F0B2FEE0E7D046E0E7C046EC0E00203B
:104B1000285501106C55011070B584B003F0E4FF06
:104B200000294AD0FA220023920004F021FB2A4CEB
:104B3000A5686061A0610520002D38D004F0D4F88C
:104B40006900002800D125484019012388423FD23E
:104B50006363FCF7F5FF192003F062F8D02580228B
:104B6000012100261E4B2D0692046A6219701D4B0E
:104B70001E706A6103F028FD1B4B1C4A02931C4BFC
:104B80000196009301235B4203F00CFF38226B680F
:104B90001B06DB0FA3546B680132DB05DB0FA3544C
:104BA0006B6801329B05DB0FA35404B070BD04F0A9
:104BB0009BF8002806D10F4BCAE7FA21890004F0C0
:104BC00099FAB4E70C4D0D49401901238842BFD32F
:104BD00004F090FA0300BBE7EC0E00204059730785
:104BE000E80E0020F42F0020A81E00206079FEFFB0
:104BF000DD19001071020000A0860100400D0300C5
:104C00000023F0B50026224CADB063804433E65457
:104C10009323D025DB00E6542D063033E6546B6831
:104C200004A81B06D90F3823E1546B680A00DB0582
:104C3000D90F3923E1546B689B05DF0F3A23E75402
:104C40000297144F144B01910092A0213A0006F0F4
:104C50000BFE04AA11490120FCF7DEFC0120002113
:104C6000404207F073FD01200021404207F06EFD35
:104C700001220B4B1E700B4B1A7080239B046B613F
:104C80002378002B01D12DB0F0BDFCF759FFFAE7D6
:104C9000EC0E0020F84D011088550110204E011037
:104CA000F42F0020E80E0020F0B54546DE465746BA
:104CB0004E46E0B5DE4C8846A5440522DD49040099
:104CC0000AF0D6F8002800D094E02000DA490AF073
:104CD00053FB002800D1EAE02000D8490AF04CFB41
:104CE000002800D1DCE02000D5490AF045FB00286F
:104CF00000D1D1E02000D3490AF03EFB002800D1CA
:104D000081E02000D0490AF037FB002800D13EE1C5
:104D10002000CE490AF030FB002800D15FE12000DE
:104D2000CB490AF029FB002801D100F052FD2000F8
:104D3000C8490AF021FB002801D100F059FD2000EC
:104D4000C5490AF019FB002801D100F038FD200008
:104D5000C2490AF011FB002801D100F003FE200037
:104D6000BF490AF009FB002800D1B5E12000BD4988
:104D70000AF002FB002801D100F017FE2000BA491A
:104D80000AF0FAFA002801D100F06CFE2000B749C1
:104D90000AF0F2FA002801D100F07AFF2000B449AD
:104DA0000AF0EAFA002801D101F00EF82000B1491A
:104DB0000AF0E2FA002801D101F0DFF82000AE4944
:104DC0000AF0DAFA002801D101F047FA2000AB49D5
:104DD0000AF0D2FA002801D101F0C1FB2000A84955
:104DE0000AF0CAFA002801D101F02AF9A548FCF717
:104DF00037FC00E00020A44B9D44F0BCBB46B2460B
:104E0000A946A046F0BDA14A2821A14B48A8914639
:104E100006F02AFD404648A90AF0C4F9041E13D042
:104E200048A80AF0EDFA24180422200099490AF053
:104E30001FF8002800D1F7E00522200096490AF06B
:104E400017F8002800D1F6E2944C4A462821944BEA
:104E500048A806F009FD404648A90AF0A3F9061E35
:104E600015D048A80AF0CCFA361804223000894937
:104E700009F0FEFF002801D100F06EFD0522300090
:104E8000854909F0F5FF002801D100F09CFD237849
:104E9000002B01D0FCF754FEFCF724FD0120AAE70B
:104EA000FFF7AEFE7F48FCF7DBFB0120A3E70027FE
:104EB00044237A4CD026E7549323DB00E75436068C
:104EC0003033E754736860801B06DA0F3823E254EE
:104ED00073689446DB05DA0F3923E2547368614640
:104EE0009B051000DA0F3A2348ADE2546E4B029254
:104EF00001906E4A00912800A02106F0B5FC2A001E
:104F00006B490120FCF788FB01200021404207F09B
:104F10001DFC01200021404207F018FC654B664A49
:104F20001F7099460123137080239B0473612378BB
:104F30009246002B01D000F03EFC01234A4626AEEB
:104F400030001370FDF7E2FE002800D09CE2282319
:104F5000F35C002B41D1594BC0212800584A8900ED
:104F600006F082FC2800FCF77BFB00234A46137006
:104F7000524601331370D02380221B0692045A61DB
:104F80002378002B8AD0FCF7DBFD012033E73F4A72
:104F900048AD28214B4B2800914606F065FC2900BE
:104FA00040460AF0FFF8041E00D1ECE128000AF0A8
:104FB00027FA4549201826AA09F068FE374C01282F
:104FC00000D0E1E1269B414A934200D91300404AB8
:104FD000934200D21300A360D6E130ABBCE7442378
:104FE0002E4CE0549323DB00E0543033E054012393
:104FF0006380FCF777FC3823616AE35C0491216AE3
:10500000344A0391E16902913A21615C01913921AD
:10501000615C0091A02148A8490006F025FC48A841
:10502000FCF71EFB0120E6E601231C4C23700CE775
:10503000DCFBFFFFA4550110144901103856011084
:105040006C5601107C560110AC560110EC56011044
:105050006057011074570110A457011054480110F3
:10506000B85701104058011070580110E85901104C
:10507000105A0110505B011058490110AC49011041
:10508000F44901107C5D011024040000504C011013
:1050900088560110A0430110A8430110EC0E002017
:1050A0009C5601104456011088550110F84D01100E
:1050B000204E0110F42F0020E80E0020945501101E
:1050C00000560110BC5601107453011000093D0038
:1050D000A08601000057011093220023D74CD20074
:1050E000A3543032A3545723012248ADE254D44A8A
:1050F0002821D44B60802800914606F0B5FB29009A
:1051000040460AF04FF826AE071E0CD028000AF0E1
:1051100077F926AE3200CC49381809F0B7FD0128DE
:1051200001D1269BA3644A462821C84B280006F0DB
:105130009BFB290040460AF035F8071E01D100F01C
:105140004EFC28000AF05CF93200BF49381809F01B
:105150009DFD012801D000F042FC269B9A46002BC1
:1051600001D101339A464A462821B94B280006F05E
:105170007BFB290040460AF015F8071E01D100F01C
:105180002AFC28000AF03CF93200AF49381809F02F
:105190007DFD012801D000F01EFC269B9B464A465F
:1051A0002821AC4B280006F05FFB2900404609F09F
:1051B000F9FF071E17D028000AF022F9BC468444E4
:1051C000674604223800A44909F052FE002801D1A4
:1051D00000F093FD05223800A04909F049FE00289F
:1051E00001D100F0C8FE4A4628219D4B280006F058
:1051F0003BFB2900404609F0D5FF071E17D02800C9
:105200000AF0FEF8BC4684446746042238009249FE
:1052100009F02EFE002801D100F06AFD05223800B9
:105220008E4909F025FE002801D100F0A2FE4A4671
:1052300028218C4B280006F017FB2900404609F076
:10524000B1FF071E16D028000AF0DAF832007E49B6
:10525000381809F01BFD01280CD1269B012B08D919
:1052600004211A1F8A4304D0042B01D800F0C3FE86
:10527000082323744A4628217B4B280006F0F4FAC1
:105280002900404609F08EFF071E00D1A1E3280047
:105290000AF0B6F832006C49381809F0F7FC01281A
:1052A00000D096E3269B082B00D908231F004A460E
:1052B00028216E4B280006F0D7FA4046290009F055
:1052C00071FF8046002800D181E328000AF098F899
:1052D00032005D49404409F0D9FC012800D076E352
:1052E000269B202B00D9202352465846E2640022F8
:1052F0002265002800D18CE3802149000A00884201
:1053000003D80200102800D21022542162525822E1
:10531000A7540132A354002300210132A3520232C8
:10532000A1540232A3522232A3500432A3500432B9
:1053300023666366A366E36623676367A367E36721
:10534000A35003F0D1FB002900D15DE3FA22002332
:10535000920003F00DFF464B2A00E0500433E0506A
:10536000444BE0501EAB190030009946FEF782FA1C
:10537000002800D037E344232900E0543E48FCF7DE
:105380004FFB012037E52D4C4A4628213B4B280096
:1053900006F06AFA2900404609F004FF061E10D004
:1053A00028000AF02DF82849301826AA09F06EFCCA
:1053B000012806D1269B324A934200D8C0E213004E
:1053C000E3604A462821274B280006F04DFA2900C1
:1053D000404609F0E7FE061E16D028000AF010F835
:1053E0001949301826AA09F051FC01280CD1269B36
:1053F000012B08D904211A1F8A4304D0042B01D899
:1054000000F0B0FC08232374A5680520002D00D10E
:105410009BE203F069FC6900002800D1194840199B
:105420000123884202D303F065FE03006363FCF7A7
:1054300059FA0120DFE40023F7E5C046EC0E002016
:10544000504C0110C857011074530110D45701106B
:10545000E0570110EC570110A0430110A8430110C0
:10546000F8570110DC5601100058011010580110B7
:105470008C0400009404000020580110C85601104C
:1054800088130000405973070F21727BF37A94460A
:105490000993337BD24A18090B40D35C105C1B0282
:1054A00003436046B77A0009105C0E97CD4F0004A5
:1054B0003B40034360460840105C1B021B0A000689
:1054C00018430A90F07BB37B844618090B40D35CE9
:1054D000105C1B02034360460009105C3B40000463
:1054E000034360460840105C1B021B0A0006184379
:1054F0000B90707C337C844618090B40D35C105CA5
:105500001B02034360460009105C3B400004034358
:1055100060460840105C1B021B0A000618430C90F2
:10552000F07CB37C844618090B40D35C105C1B02F2
:10553000034360460009105C3B400004034360469F
:105540000840105C1B021B0A000618430D90707D7A
:10555000337D844618090B40D35C105C1B02034367
:1055600060460009105C3B40000403436046B846B7
:105570000840105C1B021B0A00061843B37D8446DA
:1055800018090B40D35CF77D105C1B02089703439E
:1055900038094746105C3B400004034308980E9FBF
:1055A0000840105C1B021B0A000618433B090F4011
:1055B000D75DD35C3F023B43099F08903809105CDC
:1055C0000F4000040990404603400998D75D03430B
:1055D0001B023F061B0A3B43169363460A983C276F
:1055E00017900B9818900C9819900D981A901B937F
:1055F0000898337E1C901809105C0B4084460EA856
:10560000C019674607703D27D35C0EA8C3553E20DE
:1056100000270EAB18180770307FB37E84460893BE
:10562000F37E777E18090B40D35C105C1B020343AA
:105630006046099747460009105C3B40000403435D
:1056400060460840105C1B021B0A000618430A90C3
:10565000B07F737F844618090B40D35C105C1B023B
:10566000034360460009105C3B400004034360466E
:105670000840105C1B021B0A000618430B902020F8
:10568000305CF37F844618090B40D35C105C1B022E
:10569000034360460009105C3B400004034360463E
:1056A0000840105C1B021B0A000618430C902220C5
:1056B0002123305CF35C844618090B40D35C105CFA
:1056C0001B02034360460009105C3B400004034397
:1056D00060460840105C1B021B0A000618430D9030
:1056E00024202323305CF35C844618090B40D35CF0
:1056F000105C1B02034360460009105C3B40000441
:10570000034360460840105C1B021B0A0006184356
:10571000252384462620F35C305C1F090B40D35CB4
:10572000D75D1B023B430709D75D08403F040E9736
:1057300047463B400E9F105C3B431B02099F0006FF
:105740001B0A034338090F40D75D105C3F02074333
:105750000997089F3809105C099F00043843089F87
:1057600000020F40D75D000A3F0638431E900A989A
:105770001F900B98249320900C98272321900D982C
:10578000229060462390F05C1EAB01400709D75D74
:10579000525C1F775A7700229A773189280002914C
:1057A0007168114A0191C0210093890016AB06F07F
:1057B0005BF8FFF7D7FBFCF7C3F9FFF7BEFB00224E
:1057C0000A4BDA701B78002B01D1FFF765FBFFF75E
:1057D00061FB064B9870FCF785F80120FFF70BFB87
:1057E000C4630110FFFF00FFAC550110EC0E002058
:1057F000894A48AD2821894B2800914606F034F8A3
:105800002900404609F0CEFC041E00D1A8E0280083
:1058100009F0F6FD8249201826AA09F037FA012876
:1058200000D09DE0269B7F4A7F4C934200D8ADE09C
:105830001300E3604A4628217C4B280006F014F848
:105840002900404609F0AEFC061E13D0280009F0DE
:10585000D7FD7349301826AA09F018FA012809D192
:10586000269B734A934200D91300724A934200D296
:105870001300A3604A4628216F4B280005F0F4FF6F
:105880002900404609F08EFC061E15D0280009F0BC
:10589000B7FD6349301826AA09F0F8F901280BD1A1
:1058A000269B012B07D904211A1F8A4303D0042BFE
:1058B00000D87FE3082323744A4628215F4B280041
:1058C00005F0D2FF2900404609F06CFC061E13D0FB
:1058D000280009F095FD361804223000584909F0D7
:1058E000C7FA002800D1CAE105223000554909F065
:1058F000BFFA002800D105E2A5680520002D4AD096
:1059000003F0F2F96900002800D14F484019012343
:10591000884200D3B6E1442263630023A354932258
:10592000D200A3543032A35480225200E169628035
:105930002364226A636AA162E2622363FFF7ACFA1E
:10594000642B00D33CE564233AE503F0CDF900284D
:1059500029D03E49374D62E501236370FFF797FA7E
:10596000314C67E7002344222F4CA3549322D200EA
:10597000A3543032A3546080FEF70CF82378002B38
:1059800001D0FFF700FB0120FFF735FA642B00D3AD
:105990004FE764234DE703F0A7F9002800D175E134
:1059A0002A49244DB2E72A4B40E544221E4B985425
:1059B0001B78002B00D0A8E126482749FCF730F8D7
:1059C0000120FFF718FA00236370FFF760FA042341
:1059D0008AE401276BE400239B46FFF7E0FB0123E9
:1059E0009A46FFF7C0FB462332881C48E2524B46DA
:1059F0001A784523E2540122013B1949E254FCF78D
:105A00000FF80120FFF7F7F9FA21890003F072FB84
:105A1000A1E48022520078E4504C01108857011014
:105A20007453011088130000EC0E0020BC560110C6
:105A300000093D00A0860100DC56011094570110BA
:105A4000A0430110A843011040597307400D030003
:105A500071020000685801105058011038580110A8
:105A60002858011000234422C04C48ADA354992269
:105A7000D200A354BE4A2821BE4B60802800914624
:105A800005F0F2FE2900404609F08CFB26AE071E09
:105A90000DD0280009F0B4FC26AE3200B649381803
:105AA00009F0F4F8012802D1269AB44BE2504A4694
:105AB0002821B34B280005F0D7FE2900404609F005
:105AC00071FB071E0DD0280009F09AFC3200AA498C
:105AD000381809F0DBF8012803D19423269ADB005B
